:100000000C94A30B0C94C20B0C94C20B0C94C20B5B
:100010000C94C20B0C94C20B0C94C20B0C94C20B2C
:100020000C94C20B0C94C20B0C94C20B0C94C20B1C
:100030000C94C20B0C94C20B0C94C20B0C94C20B0C
:100040000C94C20B0C94C20B0C94C20B0C94C20BFC
:100050000C94C20B0C94C20B0C94C20B0C949E37E4
:100060000C94C20B0C94C20B0C94C20B0C94C20BDC
:100070000C94C20B0C94C20B0C94C20B0C94C20BCC
:100080000C94C20B0C94C20B0C94C20B0C94C20BBC
:100090000C94C20B0C94C20B38333B333E334133C8
:1000A000443347334A334D33503353335633593344
:1000B0005C335F336233653368336B336E33713374
:1000C000743377337A337D338033833386338933A4
:1000D0008C338F339233953398339B339E33A133D4
:1000E000A433A733AA33AD33B033B333B633B93304
:1000F000BC33BF33C233C533C833CB33CE33D13334
:10010000D433D733DA33DD33E033E333E633E93363
:10011000EC33EF33F233F533F833FB33FE33013492
:10012000043407340A340D341034133416341934BB
:100130001C341F342234253428342B342E343134EB
:10014000343437343A343D3440344334463449341B
:100150004C344F345234553458345B345E34633449
:10016000000000000000000000000000000000008F
:10017000000000000000000000000000000000007F
:10018000000000000000000000000000000000006F
:10019000000000000000300000300000300000309F
:1001A000000030000030000030000030000030005F
:1001B00000300000300000000000000000300000AF
:1001C0003000000000000000000000006C00006C27
:1001D00000006C00006C0000000000000000000047
:1001E000000000000000000000000000000000000F
:1001F00000000000000000000000000000000000FF
:1002000000000440000440000440000440007FF06F
:10021000000880000880000880000900001100002C
:10022000FFE0001100001200002200002200000088
:1002300000000000000000000200000FC0001A6073
:10024000003220003200003A00001E0000070000CB
:1002500003C00002E0000260000260002260003281
:10026000C0001F80000200000000000000007810A5
:1002700000CC1000CC2000CC4000CC4000CC800052
:1002800079000002000002F00005980009980011B2
:10029000980011980021980040F000000000000034
:1002A000000000000780000CC0000CC0000CC00063
:1002B0000CC0000780000E0000333C0063080061A2
:1002C000880061D00070F0007860003FF0000F38C7
:1002D000000000000000000000006000006000005E
:1002E00060000060000060000000000000000000EE
:1002F00000000000000000000000000000000000FE
:1003000000000000000000000000000000000000ED
:100310000400000800001800003000003000002039
:1003200000006000006000006000006000006000ED
:1003300000600000200000300000300000180000C5
:1003400008000004000040000020000030000018F9
:1003500000001800000800000C00000C00000C0059
:10036000000C00000C00000C000008000018000049
:100370001800003000002000004000000C00000CBD
:1003800000004C80007380001200001E000033004B
:10039000003300000000000000000000000000002A
:1003A000000000000000000000000000000000004D
:1003B0000000000000000000000000060000060031
:1003C000000600000600000600007FE0007FE0005D
:1003D00006000006000006000006000006000000FF
:1003E000000000000000000000000000000000000D
:1003F00000000000000000000000000000000000FD
:1004000000000000000000000000000000000030BC
:10041000000030000010000010000020000000006C
:1004200000000000000000000000000000000000CC
:100430000000000000007C00007C000000000000C4
:1004400000000000000000000000000000000000AC
:10045000000000000000000000000000000000009C
:10046000000000000000000000000000000000008C
:10047000000000000000000000000030000030001C
:100480000000000000000000000000C00000C000EC
:1004900001800001800003800003000003000006CB
:1004A00000000600000C00000C00001800001800FE
:1004B00000380000300000300000600000600000E4
:1004C0000F000019800030C0002040006060006014
:1004D00060006060006060006060006060006060FC
:1004E0000020400030C0001980000F000000000014
:1004F0000000000000000200001E000006000006D0
:1005000000000600000600000600000600000600CD
:1005100000060000060000060000060000060000BD
:100520001F80000000000000000000001F8000305D
:10053000C00020600000600000600000600000C09B
:100540000001800003000006000008000018000001
:100550001000003FE0003FE000000000000000004D
:1005600000001F800020C0002060000060000060CC
:100570000000C0000180001F000001C000006000FA
:1005800000600000600020600030C0001F8000009C
:10059000000000000000000000400000C00001C09A
:1005A0000002C00004C00008C00010C00010C0005D
:1005B00020C0007FF0007FF00000C00000C00000FD
:1005C000C00001E0000000000000000000001FC0AB
:1005D000001FC000100000100000100000100000FC
:1005E0001F000001C00000C00000600000600000AB
:1005F000600010E00010C0000F800000000000004C
:10060000000000000F800018400030400030000063
:100610006000006F800070C00060E00060600060FB
:10062000600060600020600030400018C0000F00D3
:10063000000000000000000000003FE0003FE0007C
:1006400000400000C0000080000100000100000226
:1006500000000600000400000C00000C0000080070
:10066000001800001800000000000000000000005A
:100670000F800018C0003060003060003060001C47
:10068000C0000F00001F800031C00060E00060600B
:100690000060600060600030C0001F80000000004B
:1006A0000000000000000F000031C00020C000600A
:1006B000600060600060600060600030600030E0FA
:1006C000001F600000400000C00000C0002180004A
:1006D0003E000000000000000000000000000000DC
:1006E00000000000000000003000003000000000AA
:1006F00000000000000000000000000000000000FA
:100700000000003000003000000000000000000089
:1007100000000000000000000000000000003000A9
:100720000030000000000000000000000000000099
:100730000000000000000000003000003000001049
:100740000000100000200000000000000000000079
:100750000000000000100000700001E000078000B1
:100760001E00007800001E000007800001E000006D
:1007700070000010000000000000000000000000F9
:100780000000000000000000000000000000000069
:100790007FF0007FF0000000000000007FF0007F8D
:1007A000F000000000000000000000000000000059
:1007B0000000000000000000000000000000000039
:1007C0004000007000003C00000F000003C000006B
:1007D000F00003E0000F80003E00007000004000C9
:1007E000000000000000000000003E000063000068
:1007F0004180000180000180000300000200000C25
:1008000000000800001800001800000000000000B0
:1008100000180000180000000000000000000000A8
:1008200001F8000606000C030010F900319880233F
:10083000188042188046308046308046710046B2AB
:1008400000233C0020000018200007C0000000002A
:10085000000000000000030000030000038000050A
:10086000800005800008C00008C00010E000106093
:10087000001060003FF000203000401800401800D9
:10088000E03C000000000000000000007F0000319C
:10089000C00030C00030C00030C000308000318067
:1008A000003E000031C00030C00030600030600009
:1008B00030600030C0007F800000000000000000B9
:1008C000000007F0001C180038080030000070001D
:1008D0000060000060000060000060000060000038
:1008E0007000003000001800000C080007F0000045
:1008F00000000000000000007FC0003070003038B1
:1009000000301800300C00300C00300C00300C00AF
:10091000300C00300C00301C003018003038003033
:1009200070007FC0000000000000000000007FC0D9
:100930000030400030000030000030000030000087
:100940003100003F00003100003000003000003076
:1009500000003040003040007FC000000000000078
:10096000000000007FC00030400030000030000078
:100970003000003000003080003F800030800030C8
:10098000000030000030000030000030000078002F
:100990000000000000000000000007F0001C18002C
:1009A0003808003000007000006000006000006047
:1009B0000000607C006018007018003018001818E3
:1009C000000C180007F0000000000000000000000C
:1009D000783C003018003018003018003018003013
:1009E00018003018003FF800301800301800301898
:1009F00000301800301800301800783C000000006B
:100A000000000000000078000030000030000030DE
:100A100000003000003000003000003000003000E6
:100A200000300000300000300000300000300000D6
:100A30007800000000000000000000003E00000CF4
:100A400000000C00000C00000C00000C00000C006A
:100A5000000C00000C00000C00000C00000C00005A
:100A60000C00000C00000C00008C0000980000F04E
:100A7000000078F00030400030800030800031000D
:100A8000003200003400003C00003600003300005B
:100A900031800030C00030600030300078F8000055
:100AA000000000000000000078000030000030006E
:100AB0000030000030000030000030000030000046
:100AC00030000030000030000030000030400030C6
:100AD00040007FC000000000000000000000700720
:100AE00000300600380E00380E003C16002C1600B0
:100AF0002C36002626002626002346002346002307
:100B00008600218600218600700F00000000000092
:100B100000000000701C003008003808002C08009D
:100B20002E080026080023080021880021880020C4
:100B3000C8002068002078002038002018007008C5
:100B40000000000000000000000007C0001C700052
:100B5000301800301800600C00600C00600C006061
:100B60000C00600C00600C00600C003018003018A5
:100B7000001C700007C00000000000000000000022
:100B80007F800030C0003060003060003060003096
:100B9000600030C00031C0003F0000300000300075
:100BA000003000003000003000007800000000003D
:100BB00000000000000007C0001C7000301800306A
:100BC0001800600C00600C00600C00600C00600CF1
:100BD00000600C00600C003018003018001C700021
:100BE00007C000003000001F000007007F800030B9
:100BF000C00030600030600030600030600031C004
:100C0000003F000033000031800031C00030C000E0
:100C100030600030700078380000000000000000F4
:100C200000001F800030C0006040006000006000D5
:100C3000007000003C00000F000003800001C000B5
:100C400000C00000C00040C0006180003F00000004
:100C500000000000000000007FF800430800430887
:100C60000003000003000003000003000003000075
:100C70000300000300000300000300000300000362
:100C8000000007800000000000000000000078382D
:100C90000030100030100030100030100030100014
:100CA00030100030100030100030100030100030D4
:100CB00010001820001C60000FC0000000000000A1
:100CC00000000000781C00300800300800181000F8
:100CD0001810001810000C20000C20000640000620
:100CE00040000640000380000380000380000100F4
:100CF000000000000000000000007861C03060804B
:100D000030608030E08038B10018B100193100192E
:100D10003900191A000D1A000E1A000E0E000E0CE2
:100D200000040C00040400000000000000000000AB
:100D3000F870006020003040003880001880000DFE
:100D400000000E00000600000700000B00001180EC
:100D50000011C00020C000406000E1F00000000071
:100D6000000000000000F0700060200030400038FB
:100D700040001880001C80000D00000600000600E6
:100D80000006000006000006000006000006000045
:100D90000F00000000000000000000007FE00040A5
:100DA000E00000C00001C00001800003000003005B
:100DB000000600000E00000C0000180000180000E3
:100DC0003000007020007FE0000000000000000004
:100DD00000003C0000300000300000300000300017
:100DE0000030000030000030000030000030000013
:100DF00030000030000030000030000030000030D3
:100E000000003000003C0000600000600000300086
:100E1000003000003800001800001800000C00002E
:100E20000C000006000006000003000003000003A1
:100E3000800001800001800000C00000C000780038
:100E4000001800001800001800001800001800002A
:100E50001800001800001800001800001800001802
:100E6000000018000018000018000018000018000A
:100E700000780000030000030000078000078000E6
:100E80000CC0000CC000186000186000303000304A
:100E90003000000000000000000000000000000022
:100EA0000000000000000000000000000000000042
:100EB0000000000000000000000000000000000032
:100EC0000000000000000000000000000000000022
:100ED000000000000000007F800000000000000013
:100EE0000600000300000180000000000000000078
:100EF00000000000000000000000000000000000F2
:100F000000000000000000000000000000000000E1
:100F100000000000000000000000000000000000D1
:100F200000001F000023800021800001800001805C
:100F3000001F8000318000618000618000738000AC
:100F40003CE00000000000000000000070000030E5
:100F5000000030000030000037C000386000303042
:100F600000303000303000303000303000303000A1
:100F70003060003860003780000000000000000092
:100F800000000000000000000000000000000F0052
:100F900000388000308000600000600000600000C9
:100FA0006000006000003000003880000F0000008A
:100FB000000000000000000000E000006000006091
:100FC000000060000F600030E000306000606000F2
:100FD0006060006060006060006060006060003021
:100FE000E0001F7000000000000000000000000092
:100FF000000000000000000000000F000031800031
:1010000020C00060C0007FC0006000006000006081
:1010100000003000001840000F80000000000000B9
:10102000000000000F000019000018000018000068
:101030007F000018000018000018000018000018B9
:1010400000001800001800001800001800003C0004
:101050000000000000000000000000000000000090
:101060000000000000000FF00019800030C00030C8
:10107000C00030C0001980000F00001000003000D8
:10108000003FC0001FE00020600060C0003F800003
:1010900070000030000030000030000037C0003821
:1010A0006000306000306000306000306000306010
:1010B0000030600030600030600078F00000000018
:1010C00000000000000030000030000000000000C0
:1010D00000007000003000003000003000003000E0
:1010E0000030000030000030000030000030000010
:1010F0007800000000000000000000001800001848
:101100000000000000000000380000180000180077
:101110000018000018000018000018000018000057
:10112000180000180000180000180000100000E06F
:10113000000070000030000030000030000030E09F
:10114000003080003100003200003400003E00001A
:1011500036000033000031800030C000787000009D
:1011600000000000000000007000003000003000AF
:10117000003000003000003000003000003000007F
:10118000300000300000300000300000300000303F
:1011900000007800000000000000000000000000D7
:1011A0000000000000000000000077CF803870C011
:1011B0003060C03060C03060C03060C03060C0306F
:1011C00060C03060C03060C078F1E0000000000016
:1011D000000000000000000000000000000000000F
:1011E00077C0003860003060003060003060003050
:1011F000600030600030600030600030600078F0E7
:1012000000000000000000000000000000000000DE
:101210000000000000000F000039C00030C0006076
:10122000600060600060600060600060600030C06E
:101230000039C0000F0000000000000000000000A6
:1012400000000000000000000000000077C000382F
:10125000600030300030300030300030300030304E
:10126000003060003860003780003000003000003F
:1012700030000078000000000000000000000000C6
:1012800000000F600030E0003060006060006060CF
:101290000060600060600060600030E0001F60007F
:1012A00000600000600000600000F000000000002E
:1012B000000000000000000073000037000039004B
:1012C000003000003000003000003000003000002E
:1012D0003000003000007800000000000000000036
:1012E00000000000000000000000000000000F00EF
:1012F000003080003080003000001C00000F000033
:1013000003C00000C00020C0003180001F000000AA
:10131000000000000000000000000000000030009D
:10132000003000007E00003000003000003000007F
:10133000300000300000300000300000300000308D
:1013400000001E000000000000000000000000007F
:101350000000000000000000000070E000306000AD
:10136000306000306000306000306000306000307D
:10137000600030600030E0001F70000000000000DE
:10138000000000000000000000000000000000005D
:101390007870003020003020001840001840001CF9
:1013A00080000C80000D0000070000060000020015
:1013B000000000000000000000000000000000002D
:1013C00000000000000078C70030C20030C20031C9
:1013D00062003962001B74001A34001A34000C18C1
:1013E000000C18000C1800000000000000000000B5
:1013F00000000000000000000000000078E0003065
:1014000040001880001D00000E00000600000700CC
:10141000000B800011800020C00071E0000000007F
:1014200000000000000000000000000000000000BC
:101430000000787000302000302000184000184074
:10144000001C80000C80000D00000700000600005A
:101450000200000400000C00001800000000000062
:1014600000000000000000003FE00020E00000C09D
:10147000000180000300000700000600000C0000CF
:101480001800003820003FE00000000000000000CD
:1014900000000C00001000003000003000003000A0
:1014A000003000003000002000004000002000005C
:1014B000300000300000300000300000300000102C
:1014C00000000C0000000000300000300000300080
:1014D000003000003000003000003000003000001C
:1014E00030000030000030000030000030000030DC
:1014F00000003000003000003000003000006000CC
:10150000001000001800001800001800001800006B
:10151000180000080000040000080000180000186F
:101520000000180000180000180000100000600003
:1015300000000000000000000000000000000000AB
:101540000000000000000000003E10007FF00003DB
:10155000E0000000000000000000000000000000AB
:10156000000000000000000000000000000000007B
:10157000005F00000003000300143E143E14242A00
:101580007F2A12433308666136495522500005030D
:101590000000001C2241000041221C0014083E08EB
:1015A0001408083E08080050300000080808080821
:1015B000006060000020100804023E5149453E00D2
:1015C00004027F00426151494622414949361814BC
:1015D000127F1027454545393E494949320101717D
:1015E00009073649494936264949493E00363600F9
:1015F000000056360000081422410014141414147C
:10160000004122140802015109063E4159555E7EEF
:101610000909097E7F494949363E414141227F41BE
:1016200041413E7F494949417F090909013E414104
:10163000493A7F0808087F00417F41003040404020
:101640003F7F081422417F404040407F020C027FD0
:101650007F0204087F3E4141413E7F090909061E81
:101660002121215E7F090909762649494932010174
:101670007F01013F4040403F1F2040201F7F20103E
:10168000207F41221C22410708700807615149450B
:1016900043007F41000002040810200000417F0049
:1016A00004020102044040404040000102040020C6
:1016B000545454787F44444438384444444438446F
:1016C00044447F385454541804047E050508545487
:1016D000543C7F0804047800447D40002040443D91
:1016E000007F1028440000417F40007C047804788B
:1016F0007C0804047838444444387C1414140808E2
:101700001414147C007C0804044854545420040429
:101710003F44443C4040207C1C2040201C3C403046
:10172000403C44281028440C5050503C4464544CD5
:1017300044000836414100007F0000414136080066
:1017400002010204020011241FBECFEFD0E2DEBF6F
:10175000CDBF13E0A0E0B1E0EEE0F2E800E00BBFA7
:1017600002C007900D92A839B107D9F716E0A8E991
:10177000B3E001C01D92A837B107E1F70E947C36A3
:101780000C9405410C9400000F931F93CF93DF93AB
:101790008C01EB01BA0120E030E00EC0F801E20F4D
:1017A000F31FDE01A20FB31F8D919C919183808363
:1017B000425050402E5F3F4F4230510578F7CB01E9
:1017C0008E7FDE01A80FB91FF801E80FF91F60FF37
:1017D00002C08C918083DF91CF911F910F9108956A
:1017E000EF92FF920F931F93CF93DF93EC017A0157
:1017F0008B018EEF9FEFAFEFBFEFE80EF91E0A1FD0
:101800001B1F8A899B89AC89BD890297A109B109EF
:10181000E816F9060A071B0728F020E030E040E050
:1018200050E012C02A8130E040E050E0C801B7012A
:101830000E9466409B01AC018EA19FA1A8A5B9A5FD
:10184000280F391F4A1F5B1FB901CA01DF91CF91D1
:101850001F910F91FF90EF900895CF93DF93FC01BC
:101860009B01AB01475F5F4F86859785A089B18952
:101870000097A105B10571F1C289D38980E090E09C
:101880006EE2FE01E80FF91FE0810196E03261F09F
:10189000E53009F4E5EE8930910519F4DA016D932C
:1018A000AD01DA01ED93AD018B30910551F78B85D8
:1018B000F90180878C8D9D8DAE8DBF8D8083918346
:1018C000A283B383888D998D958384838E899F8924
:1018D00097838683DA011C92DF91CF910895CF938D
:1018E000DF93EC01A881B981109719F1FD0101C0C6
:1018F00031968081813218F08A33D1F705C08A335E
:1019000019F020E030E017C08C91282F332727FDF5
:101910003095205330402A30310558F41196AE17D7
:10192000BF0739F42115310521F43196F983E88395
:1019300002C02FEF3FEFC901DF91CF910895FC0165
:101940000097E1F0A081B1811097C1F08C918823BC
:10195000A9F016962D913C911797828193812817B3
:10196000390761F411968C910E941A2C80FD03C0F6
:1019700020E030E005C023E030E002C029E030E0A4
:10198000C9010895CF93DF93EC010E949F0C9C0145
:10199000009711F419821882C901DF91CF9108953F
:1019A0008F929F92AF92BF92CF92DF92EF92FF926F
:1019B0000F931F93CF93DF93EC018C81882309F45D
:1019C00045C0CAA4DBA4ECA4FDA48EE2882E912C11
:1019D0008C0E9D1E8981B401A701960101E010E0E3
:1019E0000E94312D892B19F021E030E031C01C829A
:1019F0008E8D9F8DA8A1B9A1A7019601281B390B37
:101A00004A0B5B0B8E899F89A88DB98D28173907E2
:101A10004A075B07D8F48B81A82EBB2413C08E899C
:101A20009F89A88DB98DC80ED91EEA1EFB1E89811B
:101A3000B401A701960101E010E00E94312D089445
:101A4000A108B10882E0A816B10448F720E030E010
:101A5000C901DF91CF911F910F91FF90EF90DF901F
:101A6000CF90BF90AF909F908F900895AF92BF920C
:101A7000CF92DF92EF92FF920F931F93CF93DF935A
:101A80005C016A017B01FC0182A593A5A4A5B5A513
:101A9000481759076A077B0719F4C0E0D0E01EC059
:101AA000C5010E94D00CEC010097C1F4B501625D44
:101AB0007F4FF5018181A701960101E010E00E94AE
:101AC000E12C892B31F0CC24CA94DC2C7601C1E0C6
:101AD000D0E0F501C2A6D3A6E4A6F5A6CE01DF911B
:101AE000CF911F910F91FF90EF90DF90CF90BF901B
:101AF000AF900895CF93DF93EC011C828FEF9FEF9F
:101B0000AFEFBFEF8AA79BA7ACA7BDA7CE010E94EE
:101B1000360D892B11F023E029C0C45DDD4F88818B
:101B20009981CC52D24085559A4A11F022E01EC0CC
:101B3000CC59DF4F88819981AA81BB81C456D0409E
:101B4000B07086549144A445B04011F420E00EC01A
:101B500020E0C058DF4F88819981AA81BB81B07095
:101B600086549144A445B04009F021E0822FDF91D2
:101B7000CF9108952F923F924F925F926F927F92F2
:101B80008F929F92AF92BF92CF92DF92EF92FF928D
:101B90000F931F93DF93CF93CDB7DEB76A970FB63E
:101BA000F894DEBF0FBECDBF6C01CB01B42ED601C1
:101BB0001D921C920E946F0C7C0197FF03C02BE0CA
:101BC00030E05FC2FC01EE0FFF1FE856FC4F0081C2
:101BD00011810115110519F42CE030E052C2F60113
:101BE00011830083D8018C91882361F011968C9128
:101BF0000E941A2C80FD06C0BB2009F43DC282FD64
:101C000038C23AC2F8011082E1828E2D0E94212C46
:101C100080FF03C023E030E034C2BB2011F082FD1E
:101C200028C2C80140E050E060E070E00E947A0DF8
:101C3000813021F022243324210145C07E01089403
:101C4000E11CF11CA7012EEB31E0225D3F4FF801B2
:101C5000E20FF31F2E5230408481882329F480E064
:101C600090E0A0E0B0E004C080859185A285B385B6
:101C7000FA0181939193A193B193AF01205F3F4FFC
:101C8000F1E02E3F3F0709F7F1E1CF2ED12CCC0E2A
:101C9000DD1ED7012D903D904D905C9021143104B4
:101CA0004104510411F482E007C0C801B201A1014E
:101CB0000E947A0D882379F0E4E0F0E0EE0EFF1E3A
:101CC000EC14FD0431F7833019F421E030E0D9C180
:101CD000882309F0D4C1D801D9968D919C91DA97C7
:101CE0008050924009F0CBC10C5B1F4FF8018081FE
:101CF0009181045410404C01AA24BB248114910406
:101D0000A104B10449F40E5A1F4FD8018D909D9043
:101D1000AD90BC9002551040F801868A978AA08E3B
:101D2000B18E46AD4383842F8150823008F0A7C125
:101D300023AD2283222309F4A2C130E0C901019717
:101D400082239323892B09F09AC1015C1F4FD8018C
:101D50006D907C900F531040F80171866086C3012E
:101D60008F709070892B09F08AC10F5B1F4FD801CB
:101D70008D919C91015410406C01EE24FF24C114FC
:101D8000D104E104F10449F4025B1F4FF801C08063
:101D9000D180E280F3800E541040D801DC960D9083
:101DA000BC91A02DBE8BAD8BAB2B09F468C1242F49
:101DB00030E040E050E0C501B4010E946640698B0C
:101DC0007A8B8B8B9C8B4D895E899A0140E050E029
:101DD0002F8B388F498F5A8FE4E076946794EA9579
:101DE000E1F74301AA24BB24820E931EA41EB51E54
:101DF000860E971EA81EB91EC814D904EA04FB0457
:101E000008F43DC1C818D908EA08FB08D8011296A1
:101E10002C9130E040E050E0C701B6010E949840AC
:101E2000C901DA010097A105B10509F428C1863F6F
:101E3000EFE09E07E0E0AE07E0E0BE0718F477248D
:101E400073940DC0863FFFEF9F07F0E0AF07F0E00F
:101E5000BF0718F033E0732E02C022E0722EF2E0CA
:101E6000CF2ED12CE12CF12CC80ED91EEA1EFB1E60
:101E7000D8015296CD92DD92ED92FC925597F801E1
:101E8000228E338E448E558E8F89988DA98DBA8D72
:101E9000820D931DA41DB51D868F978FA0A3B1A39E
:101EA000820C931CA41CB51C86A297A2A0A6B1A666
:101EB00020853185F3E07F16D9F4232B09F0DFC0AC
:101EC000065A1F4FF80180819181A281B3810A5582
:101ED0001040F80182A393A3A4A3B5A3A701960180
:101EE000E2E0220F331F441F551FEA95D1F732C09D
:101EF000232B09F4C4C029893A894B895C89820F54
:101F0000931FA41FB51FF80182A393A3A4A3B5A395
:101F1000D701C601880F991FAA1FBB1FF2E07F16C9
:101F200019F49C01AD0116C09C01AD012C0D3D1DA5
:101F30004E1D5F1D569547953795279581E090E09A
:101F4000A0E0B0E0C822D922EA22FB222C0D3D1DE0
:101F50004E1D5F1D21503E4F4F4F5F4F99E05695EC
:101F60004795379527959A95D1F7F80186899789EE
:101F7000A08DB18D82179307A407B50708F47FC021
:101F80008FEF9FEFAFEFBFEF86879787A08BB18B67
:101F900082879387A487B58780E88583F3E07F16DF
:101FA00009F057C0025A1F4FD8018D919C910E55D0
:101FB0001040019709F04DC00894211C311C411CB0
:101FC000511CC801B201A1010E94360D892B09F0F4
:101FD00040C0F8011582045D1D4FD8018D919C9180
:101FE0000C52124085559A4AA1F5F80186A597A58D
:101FF000A0A9B1A982559245A146B14451F50E5E02
:102000001D4FF80180819181A281B381025112405C
:1020100082579247A144B146E1F40A5E1D4FF80190
:1020200080819181A281B38106511240F801868797
:102030009787A08BB18B065E1D4FF801808191813F
:10204000A281B3810A511240F80182879387A48745
:10205000B587D8017C9280919A0390919B03019659
:1020600090939B0380939A0317969C938E93169755
:1020700003C02AE030E005C020E030E002C02DE0DF
:1020800030E0C9016A960FB6F894DEBF0FBECDBF2F
:10209000CF91DF911F910F91FF90EF90DF90CF9044
:1020A000BF90AF909F908F907F906F905F904F9078
:1020B0003F902F9008951F93DF93CF9300D000D0CF
:1020C00000D0CDB7DEB79C838B837E836D83142FC6
:1020D0007A836983CE0101960E946F0CDC0197FF21
:1020E00003C02BE030E028C0FC01EE0FFF1FE856D4
:1020F000FC4F0190F081E02D309709F01082EB81C8
:10210000FC81309709F010828B819C81AA0FBB1F44
:10211000A856BC4F8D939C93892B61F0113051F4DC
:10212000CE010396BE016B5F7F4F40E00E94BA0D67
:102130009C0102C020E030E0C90126960FB6F89459
:10214000DEBF0FBECDBFCF91DF911F9108956F927B
:102150007F928F929F92AF92BF92CF92DF92EF9237
:10216000FF920F931F93CF93DF935C016A017B0172
:1021700038014901423051056105710508F4D1C0AB
:10218000F50182899389A489B589481759076A0797
:102190007B0708F0C6C08081823009F46CC08330B0
:1021A00009F489C0813009F0BCC0EA01D695C79511
:1021B000C40FD51FAE01452F5527469560E070E04E
:1021C000F501868D978DA0A1B1A1480F591F6A1FF7
:1021D0007B1FC5010E94360DAC01009709F0A3C01A
:1021E000DE01B17021968601017010700115110594
:1021F00051F0F501EA0FFB1F86A58F70962D929581
:10220000907F982B01C0962DAA0DBB1D9E969C9386
:1022100081E0F5018483AE01452F5527469560E0A6
:1022200070E0868D978DA0A1B1A1480F591F6A1F3C
:102230007B1FC5010E94360DAC01009709F073C0E9
:10224000D170012B49F014E09694879477946794A9
:102250001A95D1F7662D0BC0F501EC0FFD1F66A591
:10226000607FBB27A92D982D872D8F70682BCA0DF5
:10227000DB1D6EA752C0452F562F672F7727F5011C
:10228000868D978DA0A1B1A1480F591F6A1F7B1F92
:10229000C5010E94360DAC01009709F044C0CC0C7A
:1022A000DD1CEE1CFF1CF601F170BE96EA0DFB1D55
:1022B0007182608232C0E7E07695679557954795C1
:1022C000EA95D1F7F501868D978DA0A1B1A1480FB0
:1022D000591F6A1F7B1FC5010E94360DAC01009774
:1022E00011F562E0CC0CDD1CEE1CFF1C6A95D1F7E9
:1022F000F601F170BE96EA0DFB1D80819181A281ED
:10230000B38180709070A070B07F86299729A8292A
:10231000B92980839183A283B38381E0F50184830B
:1023200002C042E050E0CA01DF91CF911F910F91AE
:10233000FF90EF90DF90CF90BF90AF909F908F90E5
:102340007F906F900895BF92CF92DF92EF92FF92AD
:102350000F931F93CF93DF936C017A018B0142306F
:1023600051056105710508F4ACC0F60182899389B5
:10237000A489B589481759076A077B0708F0A1C0E7
:102380008081823009F457C0833009F474C08130F1
:1023900009F097C0EA01D695C795C40FD51FAE01C5
:1023A000452F5527469560E070E0F601868D978DA4
:1023B000A0A1B1A1480F591F6A1F7B1FC6010E942F
:1023C000360D892B09F082C0FE01F170EC0DFD1D68
:1023D000B6A42196AE01452F5527469560E070E0E2
:1023E000F601868D978DA0A1B1A1480F591F6A1FD4
:1023F0007B1FC6010E94360D892B09F067C06B2D2B
:1024000070E0D170CC0DDD1D9EA580E0682B792B8E
:10241000C70181709070892B39F0B4E0769567958B
:10242000BA95E1F79B0124C09B0140E050E03F706A
:10243000407050704FC0452F562F672F7727F601F9
:10244000868D978DA0A1B1A1480F591F6A1F7B1FD0
:10245000C6010E94360D892BC9F5EE0CFF1C001F2A
:10246000111FF701F170EC0DFD1D86A597A59C01CC
:1024700040E050E02FC0E7E0769567955795479587
:10248000EA95D1F7F601868D978DA0A1B1A1480FED
:10249000591F6A1F7B1FC6010E94360D892BB1F49C
:1024A00032E0EE0CFF1C001F111F3A95D1F7F70127
:1024B000F170EC0DFD1D26A537A540A951A95F704F
:1024C00009C021E030E040E050E004C02FEF3FEFD2
:1024D0004FEF5FEFB901CA01DF91CF911F910F91CB
:1024E000FF90EF90DF90CF90BF9008956F927F9212
:1024F0008F929F92AF92BF92CF92DF92EF92FF9214
:102500000F931F93CF93DF933C014B01DC01159692
:102510007C936E9314971696ED90FD900D911C91FF
:102520001997B1E0EB16F1040105110509F4C5C0D6
:10253000DC01ED91FC9182899389A489B589E81623
:10254000F9060A071B0708F0B8C0E114F1040105F9
:102550001105C1F48081833041F482A193A1A4A12B
:10256000B5A10097A105B10559F48085918588161C
:10257000990608F0A2C022A133A144A155A167C0C9
:102580007C018D018281C82EDD24E4E0CC0CDD1CB1
:10259000EA95E1F727C0CE01B801A7010E94A31177
:1025A0007B018C016F3FBFEF7B07BFEF8B07BFEF56
:1025B0009B0719F421E030E082C06230710581058B
:1025C000910508F47AC0D301ED91FC918289938939
:1025D000A489B589E816F9060A071B0708F06DC03B
:1025E0008C189D08F301C081D1818C149D0498F64C
:1025F0007EEFA72E7FEFB72E7FEFC72E7FEFD72E70
:10260000AE0CBF1CC01ED11E8A899B89AC89BD89B6
:102610000297A109B109A816B906CA06DB0628F077
:1026200020E030E040E050E012C02A8130E040E09D
:1026300050E0C601B5010E9466409B01AC018EA12D
:102640009FA1A8A5B9A5280F391F4A1F5B1FD30159
:102650001A96ED92FD920D931C931D97211531054D
:102660004105510551F1C40164E0969587956A953D
:10267000E1F7A0E0B0E0820F931FA41FB51FF301A4
:1026800086879787A08BB18BFFE08F22992435E056
:10269000880C991C3A95E1F78EE290E0880E991E1D
:1026A000D3018D919C911197880D991D53969C9300
:1026B0008E93529720E030E002C022E030E0C90162
:1026C000DF91CF911F910F91FF90EF90DF90CF900E
:1026D000BF90AF909F908F907F906F9008954F9292
:1026E0005F926F927F928F929F92AF92BF92CF92A2
:1026F000DF92EF92FF920F931F93CF93DF93EC0142
:102700002A013B01411551056105710599F48A843F
:102710009B84AC84BD8481149104A104B10451F163
:102720008A899B89AC89BD8988169906AA06BB0649
:1027300008F525C00E94A3119B01AC016230710510
:102740008105910508F494C02F3F8FEF38078FEF74
:1027500048078FEF580709F499C08A899B89AC898B
:10276000BD89281739074A075B0708F48FC0530152
:10277000420105C0A1E08A2E912CA12CB12C75013B
:1027800064010894C11CD11CE11CF11C8A899B893D
:10279000AC89BD89C816D906EA06FB0660F022E0BE
:1027A00082169104A104B10408F46CC0F2E0CF2EAB
:1027B000D12CE12CF12CCE01B701A6010E94A3116E
:1027C0009B01AC016115710581059105A9F02F3FB1
:1027D0008FEF38078FEF48078FEF580709F456C07F
:1027E000213031054105510509F450C0C814D90400
:1027F000EA04FB0431F646C0BC2CAD2C9E2C8F2C79
:10280000CE01A601B7010FEF1FEF2FEF3FE00E94AF
:10281000A710009759F5411451046104710449F05F
:10282000CE01B301A201860197010E94A710009773
:10283000E9F4BA86AB869C868D868E859F85A889AD
:10284000B9898F3F2FEF92072FEFA2072FEFB20723
:1028500051F00197A109B1098E879F87A88BB98B89
:102860008D8181608D83A701960110C0019729F0A9
:1028700021E030E040E050E009C02FEF3FEF4FEFA4
:102880005FEF04C020E030E040E050E0B901CA0151
:10289000DF91CF911F910F91FF90EF90DF90CF903C
:1028A000BF90AF909F908F907F906F905F904F9070
:1028B0000895AF92BF92CF92DF92EF92FF920F9363
:1028C0001F93CF93DF93EC017A018B0142305105C6
:1028D0006105710508F459C08A899B89AC89BD8955
:1028E000481759076A077B0708F444C04EC0CE0159
:1028F000B801A7010E94A3115B016C01611571056C
:102900008105910509F444C081E0A816B104C10411
:10291000D104D9F12FEFA2162FEFB2062FEFC20686
:102920002FEFD20619F421E030E034C0CE01B80117
:10293000A70100E010E020E030E00E94A7109C0119
:10294000009741F58E859F85A889B9898F3F2FEF24
:1029500092072FEFA2072FEFB20751F00196A11DAA
:10296000B11D8E879F87A88BB98B8D8181608D83E8
:10297000860175018A899B89AC89BD89E816F906AB
:102980000A071B0708F4B3CF03C022E030E002C0FF
:1029900020E030E0C901DF91CF911F910F91FF90AE
:1029A000EF90DF90CF90BF90AF900895CF92DF92DD
:1029B000EF92FF920F931F93CF93DF93EC010E944E
:1029C0009F0C8C01009709F076C08D81882331F02F
:1029D000282F30E02115310539F06EC08C8181FD42
:1029E00003C027E030E068C02E813F8148855985CB
:1029F0008A859B85AC85BD85281739074A075B0703
:102A000008F059C02A873B874C875D878C8180629C
:102A10008C8388819981211531054105510561F427
:102A20004E855F85688979890E9459149C011E86AC
:102A30001F86188A198A3AC04A895B896C897D8900
:102A40000E94A3116B017C018FEFC8168FEFD8068F
:102A50008FEFE8068FEFF80619F421E030E029C087
:102A600081E0C816D104E104F10481F1E881F98123
:102A700082899389A489B589C816D906EA06FB0616
:102A8000D0F44A895B896C897D89CF010FEF1FEFF4
:102A90002FEF3FE00E94A7109C01009751F488811E
:102AA0009981B701A6010E9459149C012115310595
:102AB00019F02D8301C09801C901DF91CF911F91B9
:102AC0000F91FF90EF90DF90CF90089522E030E0DB
:102AD000F0CF2F923F924F925F926F927F928F92A0
:102AE0009F92AF92BF92CF92DF92EF92FF920F939D
:102AF0001F93DF93CF9300D000D000D0CDB7DEB7C7
:102B00009E838D837A018B010E949F0C9A83898317
:102B1000892B09F0B7C1AD81BE8115968C918823B0
:102B200019F0E82FF0E09DC0AD81BE811A966D903E
:102B30007D908D909C901D976E147F048006910669
:102B400020F414968C9181FF02C037014801ED8179
:102B5000FE81E680F7800085118516821782108637
:102B60001186611471048104910409F458C1019023
:102B7000F081E02DFC83EB838281A82EBB24CC2442
:102B8000DD2499E0AA0CBB1CCC1CDD1C9A95D1F766
:102B9000E114F10401051105C1F1170128010894A0
:102BA0002108310841085108C401B3016150704047
:102BB00080409040A60195010E94984079018A01C9
:102BC000C201B101A60195010E949840E216F306E8
:102BD00004071507D0F088279927DC018A199B097B
:102BE000AC09BD0982219321A421B521ED81FE818B
:102BF00086839783A087B187681A790A8A0A9B0A15
:102C000042895389648975893DC0AD81BE811E9614
:102C10004D915D916D917C915197411551056105E3
:102C2000710551F58B819C8140E050E060E070E0DF
:102C30000E946F13AB01BC01413051056105710564
:102C400009F465C04F3F3FEF53073FEF63073FEF86
:102C5000730751F481E0AD81BE8115968C93E1E05C
:102C6000F0E0FA83E9830EC1AD81BE811E964D93DB
:102C70005D936D937C935197ED81FE81428B538BD5
:102C8000648B758B411551056105710509F060C0B4
:102C9000C6C0AD81BE8114968C9114972D913C9144
:102CA00081FF0DC0C9010E946F13AB01BC0141152A
:102CB00051056105710541F4350146014FC0C90157
:102CC0000E94A311AB01BC014F3FBFEF5B07BFEFF9
:102CD0006B07BFEF7B0749F481E0ED81FE818583BF
:102CE00021E030E03A832983CDC0423051056105AF
:102CF000710568F0AD81BE81ED91FC918289938967
:102D0000A489B589481759076A077B0738F082E01C
:102D1000ED81FE81858322E030E0E4CFAD81BE818C
:102D200052964D935D936D937C935597ED81FE8103
:102D300086819781A085B1858A0D9B1DAC1DBD1D27
:102D400086839783A087B1876A187B088C089D08C3
:102D5000A614B704C804D90408F49BCFED81FE8102
:102D600086819781A085B185860D971DA81DB91D07
:102D700086839783A087B187D401C3019170A07027
:102D8000B0700097A105B10509F449C0C080D18099
:102D90008EEFE82E8FEFF82E8FEF082F8FEF182F82
:102DA000E40EF51E061F171FF60182899389A48978
:102DB000B5890297A109B109E816F9060A071B07A8
:102DC000C0F4228130E040E050E0C801B7010E9429
:102DD00066409B01AC01F60186A197A1A0A5B1A513
:102DE000280F391F4A1F5B1F211531054105510569
:102DF00041F482E0AD81BE8115968C93E2E0F0E073
:102E000030CF84017301B9E016950795F794E794E4
:102E1000BA95D1F7E20EF31E041F151F03C0EE246E
:102E2000FF248701ED81FE8186819781A085B18590
:102E30009170A070B0700097A105B10569F0868906
:102E40009789A08DB18DE816F9060A071B0721F0B6
:102E5000E68AF78A008F118FED81FE812681378106
:102E60004085518582859385A485B5858217930712
:102E7000A407B50738F422873387448755878481B0
:102E80008062848389819A8126960FB6F894DEBF8A
:102E90000FBECDBFCF91DF911F910F91FF90EF90AB
:102EA000DF90CF90BF90AF909F908F907F906F906A
:102EB0005F904F903F902F900895CF93DF93EC0158
:102EC0006C817D810E947612AC010097F9F44E85E9
:102ED0005F8568897989888199810E94360DAC0166
:102EE0000097A1F4EA89FB8920E230E001C0119249
:102EF000215030408FEF2F3F3807C9F7EA89FB890F
:102F000085EE8083E881F98181E08483CA01DF91C5
:102F1000CF9108952F923F924F925F926F927F923E
:102F20008F929F92AF92BF92CF92DF92EF92FF92D9
:102F30000F931F93DF93CF9300D000D00F92CDB7A4
:102F4000DEB79A8389837D836C838A01CA01BE01BF
:102F50006F5F7F4F40E00E94BA0DBC01F801808096
:102F60009180009709F0B9C0F40126853785408922
:102F70005189E288F38804891589D801C70102972D
:102F8000A109B10982179307A407B50738F0EC81AE
:102F9000FD8120833183428353839FC0F401F081FC
:102FA000FB83F130D1F5AA24BB24650132E0E32E86
:102FB000F12C012D112DC401B801A7010E94A3110C
:102FC0006F3F2FEF72072FEF82072FEF920719F451
:102FD00021E030E073C0613071058105910519F47D
:102FE00022E030E06BC0611571058105910529F47F
:102FF0000894A11CB11CC11CD11C0894E11CF11C3B
:10300000011D111DF40182899389A489B589E816EF
:10301000F9060A071B0778F24FC0F401468C578C5B
:1030200060A071A02EE2222E312C280C391CAA247B
:10303000BB24650120E030E0E0E0F0E0211531053F
:1030400081F4C401B301A2010E94360D9C010097D6
:10305000A9F50894411C511C611C711CF10120E070
:1030600032E08B81823069F480819181892B29F44F
:103070000894A11CB11CC11CD11C329622503040B6
:1030800011C080819181A281B381BF700097A10599
:10309000B10529F40894A11CB11CC11CD11C3496A3
:1030A000245030400894E108F10801091109E114A5
:1030B000F1040105110511F620E030E0F401A686C7
:1030C000B786C08AD18A858181608583EC81FD8144
:1030D000A082B182C282D382B901CB010F900F903E
:1030E0000F900F900F90CF91DF911F910F91FF9054
:1030F000EF90DF90CF90BF90AF909F908F907F9098
:103100006F905F904F903F902F9008952F923F9235
:103110004F925F926F927F928F929F92AF92BF92E7
:10312000CF92DF92EF92FF920F931F93DF93CF9393
:1031300000D000D0CDB7DEB79C838B83162F072F2E
:103140002A013A832983D9011D921C928B819C818B
:103150000E949F0C3C01009709F072C1EB81FC8139
:103160008581882319F0682E77246AC1AB81BC81E0
:1031700014968C9180FD04C007E0602E712C60C114
:10318000EB81FC8122853385448555858681978135
:10319000A085B185281B390B4A0B5B0BC201A0E04F
:1031A000B0E0281739074A075B0708F42901812F87
:1031B000902F9C01190140C1AB81BC8116962D91C5
:1031C0003D914D915C911997DA01C9019170A07000
:1031D000B0700097A105B10509F0DAC0AB81BC81E0
:1031E000ED91FC91DA01C90119E0B695A795979583
:1031F00087951A95D1F792809A94982281F5211596
:1032000031054105510539F4EB81FC8166857785EF
:10321000808991890BC0AB81BC8152964D915D91A3
:103220006D917C915597CF010E94A3116230710579
:103230008105910528F482E0EB81FC81858347C0FC
:103240006F3FFFEF7F07FFEF8F07FFEF9F0709F447
:1032500067C0EB81FC81628B738B848B958BAB8118
:10326000BC810D911C91119752962D913D914D91DC
:103270005C9155972250304040405040F80182897F
:103280009389A489B5890297A109B109281739073B
:103290004A075B07B8F48280682D70E080E090E018
:1032A0000E9466409B01AC01F80186A197A1A0A5F0
:1032B000B1A5280F391F4A1F5B1F21153105410594
:1032C000510549F482E0AB81BC8115968C93E2E014
:1032D0006E2E712CB5C069017A01C90CD11CE11C9C
:1032E000F11C5201AB2CBB24A694A114B10409F427
:1032F00049C0292D30E0C501820F931F682D70E071
:103300006817790718F45B01A21AB30AF8018181E2
:10331000B101A701960185010E94E12C892B31F0B2
:1033200081E0AB81BC8115968C934AC0AB81BC8196
:10333000ED91FC918481882301F122A533A544A558
:1033400055A52C193D094E095F09C501A0E0B0E063
:10335000281739074A075B0780F469E0220F331FFB
:10336000441F551F6A95D1F7C101820F931FBE9666
:10337000BF0140E052E00E94C40B8501102F0027DE
:10338000110F3DC0EB81FC81C68AD78AE08EF18E99
:10339000AB81BC811696ED90FD900D911C91199713
:1033A00056964D915D916D917C9159978D919C911F
:1033B0000E94360D892B41F081E0EB81FC818583F1
:1033C00041E0642E712C3CC0C701917020E032E0D6
:1033D000281B390B82012415350508F48901AB81BE
:1033E000BC8116968D919C91179791708E966D91D8
:1033F0007C91680F791FC101A8010E94C40B200EA7
:10340000311EC801A0E0B0E0EB81FC81268137814C
:1034100040855185280F391F4A1F5B1F268337833C
:1034200040875187E981FA8180819181800F911FC6
:1034300091838083401A510A4114510409F0BCCE93
:10344000C3010F900F900F900F90CF91DF911F91BC
:103450000F91FF90EF90DF90CF90BF90AF909F9033
:103460008F907F906F905F904F903F902F90089536
:103470004F925F926F927F928F929F92AF92BF9284
:10348000CF92DF92EF92FF920F931F93DF93CF9330
:1034900000D000D0CDB7DEB76C015B014A017C01E2
:1034A00000E010E00894A108B10883E0482E512CF8
:1034B0004C0E5D1E3E010894611C711C13C0C401BA
:1034C000B30141E050E092010E9486188B819C81FB
:1034D000019759F48981F70181937F010F5F1F4F95
:1034E0008A3019F00A151B0554F3F7011082012BDD
:1034F00011F4CC24DD24C6010F900F900F900F9093
:10350000CF91DF911F910F91FF90EF90DF90CF90BF
:10351000BF90AF909F908F907F906F905F904F90F3
:1035200008954F925F926F927F928F929F92AF9287
:10353000BF92CF92DF92EF92FF920F931F93CF93A0
:10354000DF93EC016B016C807D800894611C711C21
:103550006114710409F44EC18E859F85A889B989CB
:103560000097A105B10509F445C11FE0412E512C7A
:10357000462057204114510409F028C10196A11D8D
:10358000B11D8E879F87A88BB98B4A855B856C851B
:103590007D85E881F981411551056105710539F491
:1035A000808591856816790608F410C123C182814F
:1035B00090E001979301A4E036952795AA95E1F74D
:1035C00082239323892B09F001C1CF010E94A3110B
:1035D0007B018C01623071058105910508F40DC1F4
:1035E0008FEFE8168FEFF8068FEF08078FEF1807B9
:1035F00009F406C1E881F98182899389A489B58992
:10360000E816F9060A071B0708F4A7C0CD2809F435
:10361000F1C04A855B856C857D85CF010E946F1363
:103620007B018C01611571058105910519F427E075
:1036300030E0E8C091E0E916F1040105110509F454
:10364000DCC0AFEFEA16AFEFFA06AFEF0A07AFEF55
:103650001A0709F4D5C0888199810E94D00C892B62
:1036600009F0CEC0E881F981BE9680E092E001C009
:1036700011920197BFEF8F3F9B07D1F78880998008
:103680002EEFA22E2FEFB22E2FEFC22E2FEFD22E23
:10369000AE0CBF1CC01ED11EF40182899389A4897F
:1036A000B5890297A109B109A816B906CA06DB06B1
:1036B00028F020E030E040E050E015C0D401129640
:1036C0002C9130E040E050E0C601B5010E94664018
:1036D0009B01AC01F40186A197A1A0A5B1A5280F7B
:1036E000391F4A1F5B1FD4019A962D933D934D932A
:1036F0005C939D97CC24DD24BB24B39418C0B48282
:10370000888199810E94D00C892B09F079C0E881C9
:10371000F98182A593A5A4A5B5A50196A11DB11D0A
:1037200082A793A7A4A7B5A70894C11CD11CE881C0
:10373000F981828190E0C816D90608F3960140E02D
:1037400050E082A593A5A4A5B5A5821B930BA40B5D
:10375000B50B82A793A7A4A7B5A7EA86FB860C871B
:103760001D87C880D9808EEF9FEFAFEFBFEFE80EC7
:10377000F91E0A1F1B1FF60182899389A489B58946
:103780000297A109B109E816F9060A071B0728F0F4
:1037900020E030E040E050E015C0D60112962C91B8
:1037A00030E040E050E0C801B7010E9466409B0154
:1037B000AC01F60186A197A1A0A5B1A5280F391FDC
:1037C0004A1F5B1F2E873F87488B598B7D826C82F7
:1037D00095E0440C551C9A95E1F78EE290E0480E76
:1037E000591E88819981840D951D9B8B8A8B20E0C1
:1037F00030E008C024E030E005C022E030E002C044
:1038000021E030E0C901DF91CF911F910F91FF902E
:10381000EF90DF90CF90BF90AF909F908F907F9070
:103820006F905F904F9008959F92AF92BF92CF920A
:10383000DF92EF92FF920F931F93CF93DF93EC01F0
:103840007B01FB0180818F3211F08C3519F40894D3
:10385000E11CF11C1E821F8218861986F7018081E7
:10386000803268F4CE0160E070E00E9476129C0124
:103870001B8A1A8A26C10894E11CF11C03C000E2CD
:10388000F5E09F2EF70180818F32A9F38C3599F3F3
:10389000AC89BD89FD018BE090E001C001930197E7
:1038A0002FEF8F3F9207D1F740E050E0AA24BB24CE
:1038B000E8E0CE2ED12C10E0F701EA0DFB1D2081AF
:1038C0000894A11CB11C213208F468C02F3209F4FD
:1038D00005C12C3509F402C12E3219F04C155D05D5
:1038E00080F088E0C816D10409F0E4C02E3209F057
:1038F000E1C0110F110F48E050E07BE0C72ED12C42
:10390000DBCF27FD1360822F81588F3118F08F5540
:103910008D3108F5F701EA0DFB1D3081832F8054AE
:103920008F3320F080548D3708F0C4C0C601019752
:103930004817590708F0BEC00894A11CB11CFD012E
:10394000E40FF51F2083CA010196FD01E80FF91F5E
:103950003083AC0120C0622F70E0E0E0F1E001C0F4
:1039600031968081882339F0992787FD90958617B5
:103970009707B1F79FC0822F81548A3110F41260EB
:1039800006C0822F81568A3110F411602052FD0149
:10399000E40FF51F20834F5F5F4F8ECF64E0452B10
:1039A00009F488C08C91853E09F49C92E8E0CE161B
:1039B000D10411F4110F110F212F30E0C9018370D0
:1039C0009070019709F460612C70307024303105DB
:1039D00009F468601B966C93CE0160E070E00E9471
:1039E0007612AC01009781F54E855F8568897989EB
:1039F000888199810E94360DAC01009729F5EA89EA
:103A0000FB898081882319F444E050E01DC0838540
:103A100083FD14C0DF018C899D899C01F9012BE095
:103A200030E0215030408FEF2F3F380769F09C91F4
:103A30008081981719F411963196F3CFCE0160E08A
:103A400070E00E94911ACDCFEC89FD8983854115E4
:103A5000510539F09A014430510579F582FF2FC0A4
:103A600030C082FD2AC0AA89BB891B968C911B9706
:103A700084FF25C05A968D919C915B979C0140E0F4
:103A800050E0E881F9818081833069F454968D910A
:103A90009C915597A0E0B0E0DC0199278827282B5E
:103AA000392B4A2B5B2BEA0CFB1C2E833F83488768
:103AB0005987E8CE26E030E004C09A0102C025E034
:103AC00030E0C901DF91CF911F910F91FF90EF90EE
:103AD000DF90CF90BF90AF909F90089560E05FCF50
:103AE000CF92DF92EF92FF920F931F93DF93CF93CA
:103AF000CDB7DEB7A4970FB6F894DEBF0FBECDBF2B
:103B00009CA38BA36B01ADE0EA2EF12CEC0EFD1E05
:103B1000C701BE016D5D7F4F40E00E94BA0D8C0170
:103B20000097D1F4CE0101969AA389A36BA17CA141
:103B3000C7010E94141C8C01009771F48F8D98A10D
:103B4000892B19F406E010E007C0C114D10421F05C
:103B5000C701B6010E942D0CC801A4960FB6F894B7
:103B6000DEBF0FBECDBFCF91DF911F910F91FF90B0
:103B7000EF90DF90CF9008950F931F93DF93CF9333
:103B8000CDB7DEB760970FB6F894DEBF0FBECDBFDE
:103B90008C01788B6F87009719F429E030E05EC0C4
:103BA000CE010196BE01615F7F4F40E00E94BA0DD9
:103BB0009C01009709F04FC089819A81F801918397
:103BC0008083CE010396958B848B6F857889C8019D
:103BD0000E94141C9C010097A9F5F801A289B389E1
:103BE000109719F11B968C911B9784FF32C05A963F
:103BF0008D919C915B979C0140E050E0E981FA81B6
:103C00008081833069F454968D919C915597A0E002
:103C1000B0E0DC0199278827282B392B4A2B5B2B16
:103C2000F8012683378340875187E981FA818681AD
:103C30009781F80193838283C80160E070E00E945D
:103C400076129C012430310521F02115310531F027
:103C500002C025E030E0F80111821082C9016096AF
:103C60000FB6F894DEBF0FBECDBFCF91DF911F918D
:103C70000F9108950F931F93CF93DF938C0160E012
:103C800070E00E947612EC010097F1F4D8011E96C4
:103C90004D915D916D917C9151978D919C910E9478
:103CA000360DEC01009781F4D8015296ED91FC910C
:103CB0005397E081E53E81F1EE2371F1C80161E0A7
:103CC00070E00E94911ADFCFC430D105F9F4C7E04B
:103CD000D0E01CC0D8015296ED91FC91539780E240
:103CE00090E001C011920197BFEF8F3F9B07D1F782
:103CF000F80164897589828993894BE050E00E94BC
:103D0000C40BD801ED91FC9181E08483CE01DF9159
:103D1000CF911F910F910895F801468557856089CD
:103D20007189808191810E94360DEC01009791F29A
:103D3000EDCF2F923F925F926F927F928F929F92E0
:103D4000AF92BF92CF92DF92EF92FF920F931F93A9
:103D5000DF93CF93CDB7DEB7A4970FB6F894DEBF4D
:103D60000FBECDBF3C017CA36BA3009721F4A9E05B
:103D70002A2E312C16C1DC011D921C92FFE15F2E10
:103D800054228E01035F1F4F4E71C801BE016D5D4D
:103D90007F4F0E94BA0D1C01009709F002C1CE01AD
:103DA00001969AA389A36BA17CA1C8010E94141C4F
:103DB0009C01CF8CD8A0009729F4C114D10411F430
:103DC00026E030E0452D50E0CA018C719070892BBF
:103DD00009F47CC02115310589F02430310529F41E
:103DE000CE010D960E943A1E9C01CF8CD8A02115C1
:103DF000310509F0F4C0B8E05B2A07C0F6018385FD
:103E0000817109F0EAC052FCE5C053FE6EC080E04B
:103E100090E0A9E6B5E4F60186879787A08BB18B81
:103E20001386D6015C961D921D921D921C925F977F
:103E30009601265E3F4F5A968D919C915B977C012F
:103E400000E010E0ED85FE858081833069F45496B2
:103E50008D919C915597A0E0B0E0DC0199278827CF
:103E6000E82AF92A0A2B1B2BF90111821082D601AC
:103E700055961C921E925497ED85FE8581E08483B1
:103E8000E114F1040105110581F182A493A4A4A415
:103E9000B5A4CF01B801A7010E9459149C01009755
:103EA00009F09DC0ED85FE850894E108F10801093F
:103EB0001109E286F38604871587CF01B501A401B5
:103EC0000E94360D9C01009781F089C021153105B3
:103ED00009F085C0F601838584FF03C024E030E04B
:103EE0007EC051FE02C080FD78C053FE02C0F0E2E9
:103EF0005F2AED85FE8522A533A544A555A5D301EE
:103F00005A962D933D934D935C935D975F96DC920B
:103F1000CE925E9714965C92149715961C92D601D9
:103F20005A968D919C915B979C0140E050E0808176
:103F3000833069F454968D919C915597A0E0B0E040
:103F4000DC0199278827282B392B4A2B5B2BD3019F
:103F50001E962D933D934D935C935197D6015C969D
:103F60002D913D914D915C915F97D3011A962D93C0
:103F70003D934D935C931D9716961D921D921D9235
:103F80001C92199756961D921D921D921C9259973C
:103F90001196FC93EE938681978113969C938E9352
:103FA0001297C101A4960FB6F894DEBF0FBECDBF25
:103FB000CF91DF911F910F91FF90EF90DF90CF9005
:103FC000BF90AF909F908F907F906F905F903F9049
:103FD0002F90089528E030E002C027E030E019017A
:103FE000E0CF0F931F93CF93DF93EC018B0124E07D
:103FF00030E027C0888199810E94360D9C0100978E
:1040000061F5EA89FB898081882389F19385853E62
:1040100081F08E3271F0892F8F738F3051F040E034
:1040200050E08F71883011F441E050E040175107A3
:10403000C1F0CE0160E070E00E94911A9C010097EF
:1040400061F44E855F85688979894115510561055F
:10405000710581F62115310521F01E861F86188A0B
:10406000198AC901DF91CF911F910F91089524E022
:1040700030E0F3CFEF92FF920F931F93DF93CF9334
:10408000CDB7DEB72C970FB6F894DEBF0FBECDBF0D
:104090008C017B010E949F0C009741F4E114F10414
:1040A00039F4C80160E070E00E9476129C012AC0D9
:1040B000CE010196F801958B848BC80160E070E019
:1040C0000E94F11F9C018430910531F4F80116869D
:1040D0001786108A118A02C00097A1F4C801B7019F
:1040E0000E942D0CC80160E070E00E94911A9C01B2
:1040F0008430910539F4F80116861786108A118AE2
:1041000020E030E0C9012C960FB6F894DEBF0FBE58
:10411000CDBFCF91DF911F910F91FF90EF90089548
:104120002F923F924F925F926F927F928F929F92C7
:10413000AF92BF92CF92DF92EF92FF920F931F93B5
:10414000DF93CF9300D000D0CDB7DEB79C838B83B5
:10415000162F072F2A013A832983D9011D921C9219
:104160008B819C810E949F0C4C01009709F0F5C146
:10417000EB81FC818581882319F0882E9924EDC17B
:10418000AB81BC8114968C9181FD04C077E0872EB1
:10419000912CE3C1EB81FC812681378140855185DB
:1041A000C201A0E0B0E0820F931FA41FB51F8217C9
:1041B0009307A407B50710F444245524812F902FAA
:1041C0009C011901A5C1AB81BC8116962D913D9131
:1041D0004D915C911997DA01C9019170A070B0708E
:1041E0000097A105B10509F038C1AB81BC81ED9103
:1041F000FC91DA01C90169E0B695A7959795879575
:104200006A95D1F772807A94782209F054C021150A
:1042100031054105510599F4AB81BC811E962D9164
:104220003D914D915C915197211531054105510505
:10423000C9F4CF0140E050E060E070E009C0AB811C
:10424000BC8152964D915D916D917C915597CF01B6
:104250000E946F139B01AC016115710581059105E9
:1042600009F45AC1213031054105510529F482E094
:10427000EB81FC81858371C02F3FFFEF3F07FFEF8C
:104280004F07FFEF5F0709F4D4C0EB81FC81228B5D
:10429000338B448B558B86859785A089B189009790
:1042A000A105B10541F4AB81BC811E962D933D93D0
:1042B0004D935C935197AB81BC81ED91FC9111972B
:1042C00022A533A544A555A55696ED90FD900D91D8
:1042D0001C9159972E153F054007510731F4CF0126
:1042E0000E94D00C892B09F0CCC0AB81BC810D9110
:1042F0001C91119752962D913D914D915C9155973E
:104300002250304040405040F80182899389A4896E
:10431000B5890297A109B109281739074A075B0730
:10432000B8F46280662D70E080E090E00E94664004
:104330009B01AC01F80186A197A1A0A5B1A5280F0A
:10434000391F4A1F5B1F211531054105510549F4ED
:1043500082E0AB81BC8115968C9332E0832E912C48
:10436000FCC069017A01C70CD11CE11CF11C52018F
:10437000AB2CBB24A694A114B10409F446C0272D8C
:1043800030E0C501820F931F662D70E06817790732
:1043900018F45B01A21AB30AF8018181B101A701E7
:1043A000960185010E94312D892B09F042C0AB8115
:1043B000BC81ED91FC9122A533A544A555A52C19EE
:1043C0003D094E095F09C501A0E0B0E02817390793
:1043D0004A075B07A8F499E0220F331F441F551FBB
:1043E0009A95D1F7B101620F731FCF018E9640E00D
:1043F00052E00E94C40BAB81BC81ED91FC91148210
:104400008501102F0027110F66C0EB81FC812681EA
:1044100037814085518582859385A485B585281788
:1044200039074A075B0798F0C8010E94D00C892B16
:1044300031F081E0AB81BC8115968C9326C0AB81B5
:10444000BC81ED91FC91C2A6D3A6E4A6F5A6EB81B2
:10445000FC81C68AD78AE08EF18EAB81BC8116962C
:10446000ED90FD900D911C91199756964D915D918F
:104470006D917C9159978D919C910E94360D892B5D
:1044800041F081E0EB81FC818583B1E08B2E912CA2
:1044900064C0C701917020E032E0281B390B820113
:1044A0002415350508F48901AB81BC8116962D9140
:1044B0003C9117973170225D3F4F8D919C91820FF7
:1044C000931FB101A8010E94C40BAB81BC81ED9187
:1044D000FC91B1E0B483200E311EC801A0E0B0E031
:1044E000EB81FC812681378140855185280F391F5A
:1044F0004A1F5B1F2683378340875187E981FA81F2
:1045000080819181800F911F91838083401A510A8D
:104510004114510409F057CEAB81BC8116962D9100
:104520003D914D915C9119971A968D919D910D90A9
:10453000BC91A02D82179307A407B50730F4EB8137
:10454000FC812287338744875587AB81BC811496D1
:104550008C911497806214968C93C4010F900F90E5
:104560000F900F90CF91DF911F910F91FF90EF90DF
:10457000DF90CF90BF90AF909F908F907F906F9083
:104580005F904F903F902F900895EF92FF920F937E
:104590001F93DF93CF9300D0CDB7DEB78C01FC0122
:1045A0004281538157FD2AC0E40FF51F66837A01CB
:1045B0000894E11CF11CFDE3EF16F104BCF0BC0112
:1045C0006A5F7F4FFC0180819181A7019E012F5F6F
:1045D0003F4F0E94902089819A818E159F0521F07E
:1045E000EE24EA94FE2C02C0EE24FF24F801F382AC
:1045F000E282848195810196958384830F900F9048
:10460000CF91DF911F910F91FF90EF9008952F921E
:104610003F924F925F926F927F928F929F92AF9252
:10462000BF92CF92DF92EF92FF920F931F93DF938F
:10463000CF93CDB7DEB7CC55D0400FB6F894DEBFE0
:104640000FBECDBFE5966EAC7FACE597E3968EAD21
:104650009FADE3979C8B8B8B1E8A1D8A188E1F8AB9
:1046600065E7E62EF12CEC0EFD1E5DE2252E01C065
:104670007201D3016C91662309F47FC10894611C17
:10468000711C653219F0CE014396AFC0F301B190B1
:104690003F01F0E3BF1631F4D301BD903D01332457
:1046A00033940AC0BDE2BB1611F0332405C0F301F8
:1046B000B1903F0142E0342E8824992417C0C401F0
:1046C00033E0880F991F3A95E1F7880C991C880E02
:1046D000991E8B2D992787FD9095880E991E80ED48
:1046E0009FEF880E991ED301BD903D018B2D805305
:1046F0008A3028F3BCE6BB1619F0ECE4BE1629F4A8
:10470000F4E03F2AD301BD903D01BB2009F435C13F
:104710008B2D81568A3110F0AB2D02C0AB2DA052EB
:10472000AF34A1F0A0354CF4A33409F44DC0A43447
:1047300079F0A23409F056C05CC0A53549F0A8351F
:1047400009F44EC0A33509F04DC004C028E052C0A2
:104750002AE050C002E0402E512C4E0C5F1CF701A5
:10476000E080F18000E010E002C00F5F1F4FF70112
:10477000E00FF11F80818823C1F731FE06C014C00D
:10478000CE01439660E20E94C5220F5F1F4FC80111
:10479000019788159905A0F307C00894E11CF11C46
:1047A000CE0143960E94C522D7016C916623A9F7DA
:1047B00007C0CE01439660E20E94C5220F5F1F4FE3
:1047C00008151905B0F354CF12E0412E512C4E0CB0
:1047D0005F1CCE014396F70160810E94C52248CF3D
:1047E00020E108C0CE0143966B2D0E94C52227010F
:1047F0003FCF22E032FE0DC0B4E04B2E512C4E0CC8
:104800005F1CF701E080F18002811381A43409F577
:1048100014C087010E5F1F4FF70160817181A434BE
:1048200039F428017B010027F7FC0095102F05C003
:1048300028017B0100E010E00CC017FF0AC01095B2
:104840000095F094E094E11CF11C011D111DF8E0AD
:104850003F2ACC24DD24822F90E0A0E0B0E06D96CA
:104860008CAF9DAFAEAFBFAF6D97C801B7016D966E
:104870002CAD3DAD4EAD5FAD6D970E949840A62E1C
:10488000C801B7016D962CAD3DAD4EAD5FAD6D97D6
:104890000E949840C901DA017C018D01E9E0EA1526
:1048A0003CF4F8E7BF1611F027E001C027E2A20EA2
:1048B000E3E0F0E0EC0FFD1FEC0DFD1D20E3A20E88
:1048C000A0820894C11CD11C0097A105B10521F05C
:1048D00080E1C816D10449F6832D90E033FE0AC06A
:1048E000E3E0F0E0EC0FFD1FEC0DFD1D20820894CD
:1048F000C11CD11C80FD03C0F0E2BF2E02C0E0E36A
:10490000BE2E76018C010270107005C0CE01439658
:104910006B2D0E94C5220115110541F40894E11C7C
:10492000F11CC70101978815990580F30894C10807
:10493000D10803E010E00C0F1D1F0C0D1D1D089485
:10494000C11CD11C0894C108D108CE014396D801DE
:104950006C910E94C52201501040C114D10491F7FE
:1049600008C0CE0143966B2D0E94C5220894E11C1D
:10497000F11CE814F904A8F37BCE4D895E8957FD3C
:1049800016C08B899C89BE01675E7F4F9E012F5F99
:104990003F4F0E949020892B51F42D893E898981B7
:1049A0009A812817390719F42F89388D02C02FEF03
:1049B0003FEFC901C45ADF4F0FB6F894DEBF0FBEF8
:1049C000CDBFCF91DF911F910F91FF90EF90DF90BE
:1049D000CF90BF90AF909F908F907F906F905F909F
:1049E0004F903F902F900895EF92FF920F931F9357
:1049F000DF93CF93CDB7DEB7C854D0400FB6F8944D
:104A0000DEBF0FBECDBF8C017C836B831E821D82F7
:104A100018861F8273E0E72EF12CEC0EFD1E05C0F8
:104A20000F5F1F4FC7010E94C522F80160816623F6
:104A3000B9F74D815E8157FD16C08B819C81BE0107
:104A4000675F7F4F9E012F5F3F4F0E949020892B11
:104A500051F42D813E8189819A812817390719F4F3
:104A60002F81388502C02FEF3FEFC901C85BDF4FB0
:104A70000FB6F894DEBF0FBECDBFCF91DF911F916F
:104A80000F91FF90EF900895DF93CF93CDB7DEB7EE
:104A9000C854D0400FB6F894DEBF0FBECDBF282F4C
:104AA0007C836B831E821D8218861F82CE01039633
:104AB000622F0E94C5224D815E8157FD16C08B81F9
:104AC0009C81BE01675F7F4F9E012F5F3F4F0E9419
:104AD0009020892B51F42D813E8189819A8128175C
:104AE000390719F42F81388502C02FEF3FEFC90134
:104AF000C85BDF4F0FB6F894DEBF0FBECDBFCF91BE
:104B0000DF9108950F931F93CF93DF93EC010E94E1
:104B1000D00C9C01009709F066C08881833009F0B1
:104B200057C08D81813009F053C0BE01625D7F4F57
:104B3000FB0180E092E001C0119201972FEF8F3FBF
:104B40009207D1F7C45DDD4F85E59AEA99838883A2
:104B5000CC52D24082E592E5A1E6B1E48EA79FA7B0
:104B6000A8ABB9ABCE5EDD4F82E792E7A1E4B1E638
:104B700088839983AA83BB83C251D2408E859F8547
:104B8000A889B989CA5EDD4F88839983AA83BB83CC
:104B9000C651D2408A859B85AC85BD85C65EDD4FFA
:104BA00088839983AA83BB83CA51D2402A8D3B8DC7
:104BB0004C8D5D8D2F5F3F4F4F4F5F4F2AA73BA717
:104BC0004CA75DA7898101E010E00E94312D1D8274
:104BD000898160E040E050E00E949D2D009711F037
:104BE00081E090E09C01C901DF91CF911F910F916D
:104BF0000895EF92FF920F931F93DF93CF93CDB75A
:104C0000DEB7A4970FB6F894DEBF0FBECDBF9CA34E
:104C10008BA38B01EDE0EE2EF12CEC0EFD1EC701F7
:104C2000BE016D5D7F4F41E00E94BA0D9C0100976F
:104C300041F5CE0101969AA389A36BA17CA1C7017E
:104C40000E94141C9C010097E1F4EF8DF8A13097AD
:104C500019F426E030E015C0D80116968D919C918C
:104C60001797978B868B14968D919C911597918FA2
:104C7000808FED85FE8581E08483CF010E948225AF
:104C80009C01C901A4960FB6F894DEBF0FBECDBF3C
:104C9000CF91DF911F910F91FF90EF900895CF92E8
:104CA000DF92EF92FF920F931F93DF93CF93CDB7D5
:104CB000DEB7C155D0400FB6F894DEBF0FBECDBFF2
:104CC0008E01025B1F4FF80191838083E0E5CE2EB9
:104CD000D12CCC0EDD1EF6017183608372E2E72ECB
:104CE000F12CEC0EFD1EC701B80141E00E94BA0D87
:104CF0009C01009709F0EEC08AA19BA199AF88AFF3
:104D0000CE0101969FAB8EABF80160817181C70126
:104D10000E94141C9C01009709F0DCC06CA97DA9BD
:104D20006115710519F424E030E0D4C0655F7F4F50
:104D3000CE010D9645E150E00E94C40B8E01085C47
:104D40001F4FC801B70146E150E00E94C40BC601E5
:104D50000E946F0C97FF03C02BE030E0BBC0F60150
:104D600060817181C8010E94141C9C01009719F494
:104D700028E030E0AFC08430910509F0ABC0C80135
:104D80000E943A1E9C01009709F0A4C0FE01E65B58
:104D9000FF4F00811181C8010D96BE01615F7F4FF9
:104DA00043E150E00E94C40B8D858062F801838747
:104DB000CAA0DBA081E0F6018483F801838584FF2B
:104DC0007AC028A539A54AA55BA5FE01FE9680817B
:104DD0009181A281B381281739074A075B0709F43B
:104DE0006AC0F801828D938D9C0140E050E0F6018D
:104DF0008081833061F4F80184899589A0E0B0E076
:104E0000DC0199278827282B392B4A2B5B2B8EEF27
:104E1000E82E8FEFF82E8FEF082F8FEF182FE20E6E
:104E2000F31E041F151FF60182899389A489B58991
:104E30000297A109B109E816F9060A071B0708F04D
:104E400047C0228130E040E050E0C801B7010E9435
:104E50006640AB01BC01F60186A197A1A0A5B1A552
:104E6000480F591F6A1F7B1F4115510561057105C8
:104E700079F1C6010E94360D9C018AA19BA12115E2
:104E8000310541F59C01225B3F4FF90181818E3252
:104E900091F4FE01FE9680819181A281B381F90196
:104EA000938F828FCD01AA27BB27958B848BEAA194
:104EB000FBA181E08483CE0182960E945D179C0154
:104EC000009741F48AA19BA10E9482259C0102C007
:104ED00022E030E0C901CF5ADF4F0FB6F894DEBFB1
:104EE0000FBECDBFCF91DF911F910F91FF90EF903B
:104EF000DF90CF900895EF92FF920F931F93DF936F
:104F0000CF93CDB7DEB7A4970FB6F894DEBF0FBE30
:104F1000CDBF9CA38BA3E62EF42E8E01035F1F4F03
:104F2000C801BE016D5D7F4F41E00E94BA0D9C013A
:104F3000009721F5CE0101969AA389A36BA17CA1CC
:104F4000C8010E94141C9C010097C1F4EF8DF8A1C8
:104F5000309719F426E030E011C09F2D9772892F09
:104F60008095238582239E21892B8387ED85FE856D
:104F700081E08483CF010E9482259C01C901A4960F
:104F80000FB6F894DEBF0FBECDBFCF91DF911F915A
:104F90000F91FF90EF9008952F923F924F925F9262
:104FA0006F927F928F929F92AF92BF92CF92DF9239
:104FB000EF92FF920F931F93DF93CF93CDB7DEB79E
:104FC000A6970FB6F894DEBF0FBECDBF9CA38BA3F0
:104FD0009DE0E92EF12CEC0EFD1EC701BE016D5DBA
:104FE0007F4F41E00E94BA0D8C01009709F01BC170
:104FF000CE0101969AA389A36BA17CA1C7010E944F
:10500000141C8C01009719F408E010E00CC18430E6
:10501000910509F008C18D859E8540E050E060E073
:1050200070E00E946F134B015C01611571058105F1
:10503000910519F407E010E0D5C0613071058105D4
:10504000910519F402E010E0CDC06F3F3FEF730708
:105050003FEF83073FEF930709F4FFC08D859E85DF
:105060000E94D00C8C01009709F0BCC0CD84DE8476
:105070008EEFE82E8FEFF82E8FEF082F8FEF182F7F
:10508000E80CF91C0A1D1B1DF60182899389A4896D
:10509000B5890297A109B109E816F9060A071B07A5
:1050A00020F044245524320114C0F601228130E05E
:1050B00040E050E0C801B7010E9466402B013C016E
:1050C000F60186A197A1A0A5B1A5480E591E6A1E9A
:1050D0007B1E1EE2E12EF12CEC0CFD1CF70180E0A2
:1050E00092E001C0119201972FEF8F3F9207D1F705
:1050F000F7018BE090E020E201C0219301973FEFA0
:105100008F3F9307D1F71EE2F60116A780E181AF2A
:1051100080E090E0A9E6B5E4F701868B978BA08F3D
:10512000B18F9EA28DA2938E828EC501AA27BB2726
:105130001C01958B848BC7018096B70140E250E03B
:105140000E94C40B2FE430E0C20ED31EF601108380
:1051500021EB3FEFC20ED31E2B893C894D895E891E
:10516000ED85FE858081833069F482A193A1A4A19D
:10517000B5A1281739074A075B0721F420E030E082
:1051800040E050E0F601E25BFF4F338F228FCA010F
:10519000AA27BB27958B848BED85FE85D280CC24F6
:1051A000C3941DC0ED85FE8542A653A664A675A6D0
:1051B000C482CF010E94D00C8C01009799F4F701B2
:1051C00080E092E001C0119201973FEF8F3F93077B
:1051D000D1F70894411C511C611C711CDA94DD202C
:1051E00009F73EC08D859E85B501A4010E94591422
:1051F0001AC0EF8DF8A180E1838780E090E0A9E6F6
:10520000B5E4868B978BA08FB18F8DA19EA1938FD4
:10521000828F358A248AED85FE8581E08483CF01E3
:105220000E9482258C01C801A6960FB6F894DEBFB5
:105230000FBECDBFCF91DF911F910F91FF90EF90E7
:10524000DF90CF90BF90AF909F908F907F906F90A6
:105250005F904F903F902F90089501E010E0C2CFF3
:10526000CE010D960E943A1E8C01009711F2BACF22
:10527000CF92DF92EF92FF920F931F93DF93CF9322
:10528000CDB7DEB7EA970FB6F894DEBF0FBECDBF3D
:105290009AAF89AF8E01035F1F4FC801BE01675CE3
:1052A0007F4F41E00E94BA0D9C01009709F06AC04F
:1052B000CE0101969AA389A369AD7AADC8010E9477
:1052C000141C9C01009709F05DC0AF8DB8A1109728
:1052D00019F426E030E056C01B968C911B97282FBE
:1052E00080FF60C06DC054968D919C915597A0E051
:1052F000B0E0DC0199278827E82AF92A0A2B1B2B22
:1053000024FF61C0E114F1040105110519F422E044
:1053100030E038C023E2C22ED12CCC0EDD1EC601F7
:10532000BE01635F7F4F46E150E00E94C40BE9A6D7
:10533000FAA60BA71CA7C60162E070E00E947612D5
:105340009C010097F9F4C60160E070E00E94F11F33
:105350009C010097A9F184309105A9F113C0E114D3
:10536000F1040105110549F08D859E85B801A7015D
:105370000E9459149C01009729F48D859E850E94F6
:1053800082259C01C901EA960FB6F894DEBF0FBED4
:10539000CDBFCF91DF911F910F91FF90EF90DF90E4
:1053A000CF9008955A968D919C915B977C0100E077
:1053B00010E0ED85FE858081833009F0A1CF93CF89
:1053C00027E030E0DFCFCE010D960E945D179C01F3
:1053D000009729F2D7CFCF93DF93EC010E949F0C67
:1053E0009C010097E1F58C8185FF39C04A8D5B8D6A
:1053F0006C8D7D8D888199810E94360D9C0100976E
:1054000071F5EE8DFF8D8385806283878A859B850C
:10541000AC85BD85848F958FA68FB78F8E859F8530
:10542000A889B989938F828FCD01AA27BB27958B35
:10543000848B80E090E0A9E6B5E4868B978BA08F03
:10544000B18F138A128A8C818F7D8C83E881F981D8
:1054500081E08483888199810E9482259C01C90111
:10546000DF91CF910895CF93DF93EC010E94EB2958
:105470009C01009741F4CE010E949F0C9C01009773
:1054800011F419821882C901DF91CF910895FC01AE
:10549000819187FF02C02A9A01C02A98299A2998E7
:1054A00086FF02C02A9A01C02A98299A299885FF66
:1054B00002C02A9A01C02A98299A299884FF02C01A
:1054C0002A9A01C02A98299A299883FF02C02A9A09
:1054D00001C02A98299A299882FF02C02A9A01C0FD
:1054E0002A98299A299881FF02C02A9A01C02A98ED
:1054F000299A299880FF02C02A9A01C02A98299ADD
:1055000029986150704021F60895FC012A9A83B1D0
:1055100090E023E0969587952A95E1F78170299A86
:105520002998880F1B998F5F299A2998880F1B99B2
:105530008F5F299A2998880F1B998F5F299A29983C
:10554000880F1B998F5F299A2998880F1B998F5F65
:10555000299A2998880F1B998F5F299A2998880F73
:105560001B998F5F299A299880836150704011F0B0
:105570003196CDCF0895EF92FF920F931F93DF9353
:10558000CF930F92CDB7DEB708E813E17E01089400
:10559000E11CF11CC70161E070E00E94852A89814D
:1055A0008F3F59F084E690E023B123B123B123B1BA
:1055B0000197D1F70150104069F7980101151105C5
:1055C00011F021E030E0C9010F90CF91DF911F91E0
:1055D0000F91FF90EF900895DF93CF930F92CDB787
:1055E000DEB7289ACE01019661E070E00E94852A1C
:1055F0000F90CF91DF910895DF93CF930F92CDB7A6
:10560000DEB72898CE01019661E070E00E94852AFD
:105610000E94BB2A892B19F021E030E004C00E94CF
:10562000EC2A20E030E0C9010F90CF91DF9108957E
:10563000AF92BF92CF92DF92EF92FF920F931F93A0
:10564000DF93CF9300D0CDB7DEB77C016B0108EEBE
:1056500013E05E010894A11CB11CC50161E070E07B
:105660000E94852A89818F3F59F484E690E023B116
:1056700023B123B123B10197D1F70150104069F74D
:1056800089818E3F19F020E030E00CC0C701B601DF
:105690000E94852ACE01019662E070E00E94852A70
:1056A00021E030E0C9010F900F90CF91DF911F9161
:1056B0000F91FF90EF90DF90CF90BF90AF90089543
:1056C000DF92EF92FF920F931F93DF93CF9300D05F
:1056D000CDB7DEB77C01D62E0E94BB2A892B19F4E8
:1056E00020E030E028C0D9828E010F5F1F4FC80133
:1056F00061E070E00E94472A8DEFD81619F421E08E
:1057000030E019C0C70160E072E00E94472AC8017A
:1057100062E070E00E94852AC80161E070E00E94AA
:10572000852A90E089818F71853009F091E081E0D0
:105730009827292F30E0C9010F900F90CF91DF916A
:105740001F910F91FF90EF90DF900895DF92EF92FD
:10575000FF920F931F93DF93CF93CDB7DEB72797B9
:105760000FB6F894DEBF0FBECDBFD82E7A018B01E5
:1057700087FF0CC087E340E050E060E070E00E94EB
:10578000A62B823008F048C08FE7D8228CE0D816CC
:1057900061F00E94EC2A0E94FC2A892B11F48FEF01
:1057A0003BC0DD2011F425E906C088E0D81611F4CD
:1057B00027E801C021E08D2D80648A83812F9927FD
:1057C000AA27BB278B83C801AA27BB278C83BB27AB
:1057D000A12F902F8F2D8D83EE822F83CE010296E5
:1057E00066E070E00E94472A8CE0D81631F4CE01C2
:1057F000019661E070E00E94852A1AE07E0108941B
:10580000E11CF11CC70161E070E00E94852A8981DA
:1058100087FF02C01150B1F727960FB6F894DEBF8C
:105820000FBECDBFCF91DF911F910F91FF90EF90F1
:10583000DF900895882311F081E0089580910F0191
:105840000895EF92FF920F931F93DF93CF9300D0B1
:1058500000D0CDB7DEB7882311F013E0A6C080E1F9
:1058600097E223B123B123B123B10197D1F7209A55
:10587000289A219A2998229A1AE07E010894E11C1C
:10588000F11CC70161E070E00E94852A1150C9F740
:1058900080E040E050E060E070E00E94A62B8130A4
:1058A00009F078C088E04AEA51E060E070E00E94C8
:1058B000A62B813009F03DC0C70164E070E00E9472
:1058C000852A8B81813009F065C08C818A3A09F084
:1058D00061C008EE13E089EA40E050E060E070E467
:1058E0000E94A62B882361F088EE93E023B123B1B8
:1058F00023B123B10197D1F70150104061F74AC09D
:105900008AE340E050E060E070E00E94A62B88232C
:1059100009F040C0CE01019664E070E00E94852A43
:10592000898186FD03C0F4E0FF2E35C0ECE0FE2E39
:1059300032C089EA40E050E060E070E00E94A62BAF
:10594000823028F0FF24F394EE24E39404C072E044
:10595000F72E69EAE62E08EE13E08E2D40E050E0C7
:1059600060E070E00E94A62B882361F088EE93E04F
:1059700023B123B123B123B10197D1F701501040D6
:1059800061F708C080E140E052E060E070E00E9412
:10599000A62B8111FF24F0929C0310E0FF2009F454
:1059A00011E010930F010E94EC2A812F0F900F90AD
:1059B0000F900F90CF91DF911F910F91FF90EF907B
:1059C0000895FF920F931F93CF93DF93EB018823EA
:1059D00011F081E002C080910F0180FF03C003E05D
:1059E00010E038C080919C0383FD07C089E0220F3E
:1059F000331F441F551F8A95D1F70230110518F443
:105A0000B1E1FB2E02C0A2E1FA2E8F2DBA01A9014D
:105A10000E94A62B8823B9F4CE0160E072E00E94B8
:105A2000182B892B31F00150104019F0C050DE4F77
:105A3000F3CF82E1F81639F48CE040E050E060E00A
:105A400070E00E94A62B0E94EC2A0115110511F0AE
:105A500001E010E0C801DF91CF911F910F91FF90FD
:105A60000895CF92DF92EF92FF920F931F93CF93FF
:105A7000DF93EB0169017A01882311F081E002C014
:105A800080910F0180FF03C003E010E04CC08091C3
:105A90009C0390E083FD07C029E0CC0CDD1CEE1CCC
:105AA000FF1C2A95D1F70130110581F488E1B70177
:105AB000A6010E94A62B882379F5CE016EEF0E94E5
:105AC000602B892B49F100E010E026C086709070B1
:105AD000892B31F0A80160E070E087E90E94A62BD5
